:020000001028C6
:10000800FE00030EF1000408F2000A08F300831250
:1000180003137F08F40025291128F601F701F801D8
:1000280083011628E9208312031306146121831221
:1000380003132108B4002008B3008220031C1A28E7
:100048000D21031C1A288B1383120313B7010530E3
:10005800370203183E283703FF3A043E2E3EBA20E3
:10006800013083120313AA002A08B70705303702A4
:10007800031C2F288B170310061C0314031C482885
:100088008312031306144B288312031306107621D8
:10009800363051219530831203133606031D662826
:1000A800B6017B218312031330086E2135305121AC
:1000B800031C5A288312031330083506031D6528CC
:1000C80076217621831203133309AA003409AB0081
:1000D800AA0A0319AB0A6121831203132A0820070D
:1000E800AC002B0803182B0A2107AD0000302D02A5
:1000F800053003192C0203181A28662883160313DF
:1001080005108312031305106121831203132108BC
:10011800A9002008A8002809A4002909A500A40A04
:100128000319A50A61218312031324082007A600D6
:1001380025080318250A2107A700003027021330D5
:1001480003192602031C8F2883160313051409308C
:1001580083120313A400A40BAF2800008312031317
:100168000518B828031408000310080083120313A5
:10017800A2002208840083138001A301083023020F
:1001880003180800051CC628910112150518CA286D
:10019800121129301102031CE4280130A0002303A6
:1001A800FF3A073E013EDA280310A00DFF3E031D6B
:1001B800D8282008A100220884002108831380047D
:1001C8000130A0002008A307C228831203131F15BB
:1001D8009F141F148316031306108510051176212A
:1001E8003D21823083120313A100DD30A000A00B53
:1001F800FB28A10BFB280000831603138112811131
:100208000114811001118312031392018B168B17AD
:1002180008008316031305148312031391011215A2
:10022800051C142912113230110203181D2903105C
:1002380008009101121505181F2912113C301102EE
:1002480008000B1D32290B110730F00070088107D8
:100258000130F6070318F70A0030F7077408FF00A3
:1002680073088A0072088400710E8300FE0E7E0EE9
:1002780009001930831603139900181518128312F0
:100288000313981783160313061186148312031396
:100298001816831603139816080083120313A00078
:1002A8008C1E5F291A08F50020088400750883133E
:1002B800800003140800031008008B1377088312CA
:1002C8000313A3007608A2008B172308A1002208B5
:1002D800A0000800F500831203130C1E6F2975088F
:1002E8009900080083120313051185100800831272
:0802F800031305118514080031
:02400E000AFFA7
:00000001FF
