:0400000007EF00F016
:0A0008005C82AAED0FF0B3EF13F0D5
:10080000003F065B4F666D7D077F67D0088A0856FC
:1008100008130809024300020100C0320904000065
:100820000102020100052400100104240202052433
:1008300006000105240100010705810308000209E3
:10084000040100020A000000070502024000000740
:1008500005820240000034034300440043002000AE
:10086000520053002D0032003300320020004500BA
:100870006D0075006C006100740069006F006E000F
:100880002000440065006D006F0034034D006900D6
:10089000630072006F006300680069007000200050
:1008A00054006500630068006E006F006C006F000C
:1008B00067007900200049006E0063002E001201DD
:1008C000000202000008D8040A0000010102000131
:0508D00004030904000F
:1008D60090D2200E52602BD09AC0C7F09BC0C8F0B1
:1008E6000001C71FC81FC74BC82B12EC14F000012C
:1008F600C751B527C851B623F40EB55D010EB659DA
:10090600D8A015D080B403D0C76BC72B02D0000186
:10091600C76BC747C7478050C719FB0BC719806EFF
:1009260012EC14F0B5C09AF0B6C09BF0120012ECAF
:1009360014F0B5C096F0B6C097F0010E0001A16F95
:10094600120033EC14F00001A05127EC14F0B30EA2
:100956000001B56F000EB66F06EC14F00001D8A0CA
:10096600F6D7A051B319D8A410D0000EB36F36EC49
:1009760014F0030E0001A16F000E9F6F12EC14F02D
:10098600B5C098F0B6C099F01200040E0001A16F30
:100996001200B40EB56F000EB66F06EC14F000012F
:1009A600D8A016D0020E9F6113D09F51010D940E50
:1009B600F324D96E000EF420DA6EB4C0DFFF12EC19
:1009C60014F0B5C098F0B6C099F000019F2B120044
:1009D600010E9F6508D0040EA16F94C0C9F095C0A2
:1009E600CAF0C60EA06F98C0C7F099C0C8F0C71F5E
:1009F600C81FC74BC82B12EC14F00001C751B5270E
:100A0600C851B623F50EB55D010EB659D8A0120031
:100A1600000EA16F1200B40EB56F000EB66F06EC95
:100A260014F00001D8A010D0B4C09EF012EC14F05F
:100A3600B5C098F0B6C099F09EC0CCF0040E000187
:100A4600A16FC70EA06F120098C0C7F099C0C8F07A
:100A5600C71FC81FC74BC82B12EC14F00001C751A3
:100A6600B527C851B623F50EB55D010EB659D8A007
:100A76001200000EA16F1200B40EB56F000EB66F15
:100A860006EC14F00001D8A00ED0B4C09EF012EC13
:100A960014F0B5C098F0B6C099F09EC0CDF0000E27
:100AA6000001A16F120098C0C7F099C0C8F0C71F17
:100AB600C81FC74BC82B12EC14F00001C751B5274D
:100AC600C851B623F50EB55D010EB659D8A0120071
:100AD600000EA16F1200B40EB56F000EB66F06ECD5
:100AE60014F00001D8A00CD0B4C09EF012EC14F0A3
:100AF600B5C098F0B6C099F0000E0001A16F1200C3
:100B060098C0C7F099C0C8F0C71FC81FC74BC82BED
:100B160012EC14F00001C751B527C851B623F50EE3
:100B2600B55D010EB659D8A01200000EA16F1200D5
:100B3600B40EB56F000EB66F06EC14F00001D8A027
:100B460015D0B4C09EF0C80E9E19D8A40AD012ECD7
:100B560014F0B5C098F0B6C099F0000E0001A16F70
:100B66001200C10EA06F040EA16F120098C0C7F04C
:100B760099C0C8F0C71FC81FC74BC82B12EC14F08A
:100B86000001C751B527C851B623F50EB55D010E54
:100B9600B659D8A01200000EA16F1200B40EB56FA0
:100BA600000EB66F06EC14F00001D8A015D0B4C044
:100BB6009EF0C80E9E19D8A40AD012EC14F0B5C047
:100BC60098F0B6C099F0000E0001A16F1200C30E96
:100BD600A06F040EA16F120098C0C7F099C0C8F0AC
:100BE600C71FC81FC74BC82B12EC14F00001C75112
:100BF600B527C851B623F50EB55D010EB659D8A076
:100C06001200000EA16F1200B40EB56F000EB66F83
:100C160006EC14F00001D8A015D0B4C09EF0C80EA2
:100C26009E19D8A40AD012EC14F0B5C098F0B6C03C
:100C360099F0000E0001A16F1200C20EA06F040E03
:100C4600A16F120098C0C7F099C0C8F0C71FC81F8F
:100C5600C74BC82B12EC14F00001C751B527C85179
:100C6600B623F50EB55D010EB659D8A01200000EDA
:100C7600A16F1200B40EB56F000EB66F06EC14F03D
:100C86000001D8A015D0B4C09EF0C80E9E19D8A4F5
:100C96000AD012EC14F0B5C098F0B6C099F0000E68
:100CA6000001A16F1200C40EA06F040EA16F120006
:100CB60098C0C7F099C0C8F0C71FC81FC74BC82B3C
:100CC60012EC14F00001C751B527C851B623F50E32
:100CD600B55D010EB659D8A01200000EA16F120024
:100CE600A051960AD8B4F7D63E0AD8B452D6690AA5
:100CF600D8B41ED7030AD8B487D7010AD8B44ED7BA
:100D0600070AD8B4B7D7020AD8B485D6010AD8A438
:100D16001200B2D6B20EC46F000EC56FE2EC12F02E
:100D26000001D8A02BD0C10EB219D8A405D0040E4C
:100D3600A16FC10EA06F1200C30EB219D8A405D0C0
:100D4600040EA16FC30EA06F1200C20EB219D8A472
:100D560005D0040EA16FC20EA06F1200C40EB21908
:100D6600D8A405D0040EA16FC40EA06F1200660EA3
:100D7600B219D8A41200020EA16F120096C0C7F0D5
:100D860097C0C8F0C71FC81FC74BC82B12EC14F07A
:100D96000001C751B527C851B623F50EB55D010E42
:100DA600B659D8A0120012EC14F0B5C096F0B6C031
:100DB60097F0040E0001A16FA80EA06F1200FC0EA2
:100DC6005CEC12F00001C9515CEC12F00001CA5152
:100DD6005CEC12F00001CC515CEC12F00001CD513C
:100DE6005CEC12F0FE0E5CEC12F0000E0001A16F3E
:100DF60012000001A151000AD8B46BD5010AD8B47B
:100E060089D7030AD8B4DBD7010AD8B469D7070A49
:100E1600D8A4120096D504014205D8A410D040519A
:100E26001F0B0009D8A40BD00001858F030E040107
:100E36004119D8A402D0010E01D0000E4F6E4251C6
:100E4600D8A4120040511F0B020AD8A41200445124
:100E56000F0B0009D8B4120044510F0B156E040E87
:100E660015601200200E5218D8A412000001858FBA
:100E7600040144BF19D044510F0B156E1550020DD5
:100E86007A0EF324D96E000EF420DA6EDECF19F056
:100E9600DDCF1AF044510F0B156E1550010D8C0E57
:100EA600F324D96E000E18D044510F0B156E155051
:100EB600020D720EF324D96E000EF420DA6EDECF28
:100EC60019F0DDCF1AF044510F0B156E1550010DB8
:100ED600900EF324D96E000EF420DA6EDF50186EF1
:100EE60018B006D0FB0E1914196EFF0E1A1404D092
:100EF600040E1910196E1A501A6E44BF0AD04451C6
:100F06000F0B156E1550020D7A0EF324D96E000ED6
:100F160009D044510F0B156E1550020D720EF324B5
:100F2600D96E000EF420DA6E19C0DEFF1AC0DDFF9E
:100F3600030E4119D8A42DD019C0D9FF1AC0DAFF63
:100F4600DFAE1AD044BF0AD044510F0B156E1550B0
:100F5600010D8C0EF324D96E000E0AD00401445103
:100F66000F0B156E1550010D900EF324D96E000E61
:100F7600F420DA6E0001DF8219C0D9FF1AC0DAFF49
:100F8600000EDB8419C0D9FF1AC0DAFF000EDB8E13
:100F96001200040E1918196E1A501A6E19C0D9FFCC
:100FA6001AC0DAFFDFAE1BD019C0D9FF1AC0DAFFAC
:100FB6007F0EDF1619C0D9FF1AC0DAFF000EDB8CD0
:100FC600000E0E6E050E0D6E19C00FF01AC010F051
:100FD600000E126E020E116EFEEC11F006D019C054
:100FE600D9FF1AC0DAFF000EDB8C040E1918196E31
:100FF6001A501A6E18B206D019C0D9FF1AC0DAFFF5
:10100600DFAE30D0040144BF0AD044510F0B156E39
:101016001550010D8C0EF324D96E000E0AD0040172
:1010260044510F0B156E1550010D900EF324D96E19
:10103600000EF420DA6E0001DF9219C0D9FF1AC043
:10104600DAFF3B0EDF16000E0E6E050E0D6E19C092
:101056000FF01AC010F0000E126E020E116EFEECAA
:1010660011F006D019C0D9FF1AC0DAFF3B0EDF1601
:10107600040144510F0B156E1550010D700EF3242B
:10108600166E0F0EF420176E16C0D9FF17C0DAFFC2
:10109600FE0EDF161200A09A000E6A6E000E686E33
:1010A600000E706E710E0001B56F0F0EB66F000E5A
:1010B600B86F000EB76F000EBA6F030EB96F56EC1D
:1010C60013F0160E6F6E9F0E6B6E7B0E696E000E22
:1010D6000001BD6F0F0EBD6501D00ED0BD51040DD0
:1010E600000EF324D96E040EF420DA6EDE6ADE6A90
:1010F600DE6ADD6ABD2BEED76D8C000E6E6E6D98C6
:101106006D9C6896000E856F000E6D6F000E6F6FFA
:10111600000E6E6F68B6F5D7010E4A6E010E496E67
:10112600000E486E000E476E000EA56F000EBD6FD6
:10113600030EBD6501D02ED0BD51020D720EF324F3
:10114600D96E000EF420DA6E000EDE6E000EDD6E35
:10115600BD51020D7A0EF324D96E000EF420DA6E1C
:10116600000EDE6E000EDD6EBD51010D900EF324F5
:10117600D96E000EF420DA6E000EDF6EBD51010D41
:101186008C0EF324D96E000EF420DA6E000EDF6E9C
:10119600BD2BCED7080E726F040E736F160E706ECF
:1011A600040E0401036F400E026F080E016F040E59
:1011B600006F008F000E5B6E000E2F6E000E306EFD
:1011C600000E316E000E326E000E0001A46F000E8E
:1011D600526E1200A09A000E6A6E000E686E000E25
:1011E600706E710E016E0F0E026E000E046E000E12
:1011F600036E000E066E030E056E9DEC13F0160EC2
:101206006F6E9F0E6B6E7B0E696E000E096E0F0E73
:10121600096401D00ED00950040D000EF324D96ED6
:10122600040EF420DA6EDE6ADE6ADE6ADD6A092AF8
:10123600EED76D8C000E6E6E6D986D9C6896000EE6
:101246000001856F000E6D6F000E6F6F000E6E6FE2
:1012560068B6F4D7010E4A6E010E496E000E486E4E
:10126600000E476E000EA56F000E096E030E096490
:1012760001D02ED00950020D720EF324D96E000E45
:10128600F420DA6E000EDE6E000EDD6E0950020DE1
:101296007A0EF324D96E000EF420DA6E000EDE6E9E
:1012A600000EDD6E0950010D900EF324D96E000E6E
:1012B600F420DA6E000EDF6E0950010D8C0EF32459
:1012C600D96E000EF420DA6E000EDF6E092ACED734
:1012D600080E0001726F040E736F160E706E040E08
:1012E6000401036F400E026F080E016F040E006FBB
:1012F600008F000E5B6E000E2F6E000E306E000E1D
:10130600316E000E326E000E0001A46F000E526E9A
:1013160012005204D8B46DBA06D0000E686E698009
:101326006988020E526E68B469A403D068943BECD7
:1013360013F06DA202D0A19A120068B069A006D07F
:10134600EDEC08F0A08A040E526E689068B869A8A1
:1013560002D086EC13F068AC1AD069AC0ED0000E41
:101366000E6E730E0D6E000E0F6E000E106E000EDA
:10137600126E010E116EFEEC11F0689CE7EC13F094
:101386004C50D8A44C064C50D8B48FEC0EF068BA2A
:1013960069AA02D0C1EC12F068B269A20FD07F0E22
:1013A6000E6E0D68000E0F6E000E106E000E126EA1
:1013B600010E116EFEEC11F0000E6A6E040E526004
:1013C60002D0A19A120069A639D0000E1C6E030E37
:1013D6001C6401D033D068A631D06CCF5AF05A3095
:1013E600E832E8320F0B4E6E68965AB407D04E506C
:1013F600010D8C0EF324D96E000E06D04E50010D51
:10140600900EF324D96E000EF420DA6E0001DF7020
:101416004E50D8A403D0EFEC10F00ED0000E0E6E96
:10142600720E0D6E5A0E0F6E000E106E000E126EBC
:10143600000E116EFEEC11F01C2AC9D7A19A1200FB
:10144600800E04014019D8A41200C00E0001856F59
:1014560082D0BE0E0001826F080E836F000E876F6A
:10146600120E866F120004014251D8A440D0425198
:10147600020D110EF324F66E080EF420F76E090025
:10148600F5CF82F00A00F5CF83F0020E0001822527
:10149600016E000E8321026E01C0F6FF02C0F7FF47
:1014A600F86A070EF76403D00800F55005D0F6CFAA
:1014B600E1FFF7CFE2FFE7500001866F030E8225BA
:1014C600016E000E8321026E01C0F6FF02C0F7FF17
:1014D600F86A070EF76403D00800F55005D0F6CF7A
:1014E600E1FFF7CFE2FFE7500001876F1200000E21
:1014F6000001856F1200030E0401426124D042519F
:10150600020D0B0EF324F66E080EF420F76E09009A
:10151600F5CF82F00A00F5CF83F082C0F6FF83C0D4
:10152600F7FFF86A070EF76403D00800F55005D0F8
:10153600F6CFE1FFF7CFE2FFE750016E0150000161
:10154600866F876B1200000E0001856F1200000E79
:101556000001856F120004014351010AD8B479D7FE
:10156600030AD8B480D7010AD8B4C5D7F0D7A09A51
:101576003B503C10D8B408D03BC0D9FF3CC0DAFF82
:10158600DFAE02D0A08A1200030E0001A219D8A471
:1015960002D0000EA26FA251D8A402D0A08A1200D7
:1015A600020EA219D8A413D0010EB56F000EB66FA5
:1015B600000EB76F000EB86F020ECBEC0BF0B5C085
:1015C6003BF0B6C03CF0030E0001A26F58D0A20556
:1015D600D8A455D0400E466403D0400EC16F02D049
:1015E60046C0C1F0C15100084624466E000E336E57
:1015F600050E346EC1C0C0F04550D8B410D022D00C
:1016060036C0D9FF37C0DAFF33C0E1FF34C0E2FF8E
:10161600DFCFE7FF334A342A364A372AC007C0519C
:10162600D8B413D0EDD736C0D9FF37C0DAFF33C0F0
:10163600E1FF34C0E2FFDFCFE7FF334A342A364A00
:10164600372AC007C051D8A4EED74650D8A408D030
:10165600400EC119D8A402D0020E01D0030EA26F0B
:10166600010EB56F000EB66F050EB76FC1C0B8F0AC
:10167600020ECBEC0BF0B5C03BF0B6C03CF0A08A36
:10168600120020EE01F04150D9264250DA22DF50F6
:10169600026E025000016E5D000E6F59D8A06EC03A
:1016A60002F002506E5F000E6F5B000E016E11D0ED
:1016B6000150010D480EF324D96E040EF420DA6EA3
:1016C6006AC0E1FF6BC0E2FFDFCFE7FF6A4B6B2B1F
:1016D600012A0250015CD8A0EBD76E516F11D8B425
:1016E60032D020EE01F03F50D9264050DA22080EC3
:1016F600DF6E20EE02F03F50D9264050DA22480E27
:10170600DE6E040EDD6E41C0D9FF42C0DAFFDFBCDB
:101716000DD03FC0D9FF40C0DAFF480EDF6E3FC094
:10172600D9FF40C0DAFF000EDB8E12003FC0D9FFA2
:1017360040C0DAFF080EDF6E3FC0D9FF40C0DAFFB7
:10174600000EDB8E120020EE01F03F50D9264050ED
:10175600DA22080EDF6E20EE02F03F50D926405006
:10176600DA22400EDE6E040EDD6E3FC0D9FF40C0A9
:10177600DAFF040EDF6E3FC0D9FF40C0DAFF000E6D
:10178600DB8E6D9F4B50D8A412008FEC0EF012002A
:101796000001BD6F0001B551D8B407D0BD51020D8F
:1017A600720EF324D96E000E06D0BD51020D7A0ECC
:1017B600F324D96E000EF420DA6EDECFBEF0DDCF54
:1017C600BFF0BE51BF11D8A405D0000EB56F000EF4
:1017D600B66F120020EE02F0BE51D926BF51DA22B2
:1017E600B6C0DEFFB7C0DDFF20EE01F0BE51D92640
:1017F600BF51DA22B8C0DFFFBEC0D9FFBFC0DAFFD3
:10180600400EDF16BEC0D9FFBFC0DAFF000EDB8672
:10181600BEC0D9FFBFC0DAFF000EDB8EB551D8B40B
:1018260018D0BD51020D720EF324D96E000EF420AD
:10183600DA6EDECFB9F0DDCFBAF0040EB919BB6FA0
:10184600BA51BC6FBD51020D720EF324D96E000E53
:1018560017D0BD51020D7A0EF324D96E000EF42076
:10186600DA6EDECFB9F0DDCFBAF0040EB919BB6F70
:10187600BA51BC6FBD51020D7A0EF324D96E000E1B
:10188600F420DA6EBBC0DEFFBCC0DDFFBEC0B5F023
:10189600BFC0B6F01200096E0150D8B407D0095087
:1018A600020D720EF324D96E000E06D00950020DF9
:1018B6007A0EF324D96E000EF420DA6EDECF0AF02B
:1018C600DDCF0BF00A500B10D8A405D0000E016E28
:1018D600000E026E120020EE02F00A50D9260B50BE
:1018E600DA2202C0DEFF03C0DDFF20EE01F00A505F
:1018F600D9260B50DA2204C0DFFF0AC0D9FF0BC07D
:10190600DAFF400EDF160AC0D9FF0BC0DAFF000E61
:10191600DB860AC0D9FF0BC0DAFF000EDB8E015052
:10192600D8B418D00950020D720EF324D96E000EE9
:10193600F420DA6EDECF05F0DDCF06F0040E0518D2
:10194600076E0650086E0950020D720EF324D96E0A
:10195600000E17D00950020D7A0EF324D96E000E30
:10196600F420DA6EDECF05F0DDCF06F0040E0518A2
:10197600076E0650086E0950020D7A0EF324D96ED2
:10198600000EF420DA6E07C0DEFF08C0DDFF0AC0D5
:1019960001F00BC002F012006D98000185BF38D02F
:1019A6006DAF0BD0020E506E4750D8B455EC10F008
:1019B600000E496E000E4A6E120020EE01F03F50F6
:1019C600D9264050DA22080EDF6E20EE02F03F5094
:1019D600D9264050DA22400EDE6E040EDD6E3FC080
:1019E600D9FF40C0DAFF0C0EDF6E3FC0D9FF40C002
:1019F600DAFF000EDB8E72C0D9FF73C0DAFF040E69
:101A0600DF6E72C0D9FF73C0DAFF000EDB8E1200E4
:101A1600040140AF10D0010E506E4850D8B455ECBA
:101A260010F0000E496E000E4A6E4B50D8A41200FC
:101A36008FEC0EF01200020E506E20EE01F03F50B9
:101A4600D9264050DA22080EDF6E20EE02F03F5013
:101A5600D9264050DA22400EDE6E040EDD6E3FC0FF
:101A6600D9FF40C0DAFF040EDF6E3FC0D9FF40C089
:101A7600DAFF000EDB8E000E496E000E4A6E4B50EA
:101A8600D8A412008FEC0EF0120004014039E8329F
:101A9600030B0009D8A4120047D00001858F080E59
:101AA600526E120023EC0AF01200B9EC0DF012008F
:101AB6005B0E0001826F000E836F8581010E866FBB
:101AC600858F120001EC10F012000EEC07F01200E8
:101AD60004014451010DAE0EF3240001826F000E85
:101AE600F420836F8581010E866F858F12000001B9
:101AF600858F04014451010DAE0EF324D96E000EFC
:101B0600F420DA6E42C4DFFF1200000E0E6E020EE3
:101B16000D6E000E0F6E000E106E000E126E000E91
:101B2600116EFEEC11F0120004014151000AD8B406
:101B3600C9D7010AD8B4C9D7020AD8B4C6D7060A83
:101B4600D8B4ABD7030AD8B4ADD7010AD8B4DDD719
:101B56000F0AD8B4ADD7010AD8B4A7D7030AD8B4A8
:101B6600B7D7010AD8B4C3D7070A12000001858F78
:101B7600710E016E0F0E026E000E046E000E036EE5
:101B8600000E066E030E056E9DEC13F0000E016E40
:101B9600040E026E000E046E000E036E000E066E3C
:101BA600400E056E9DEC13F06D8C000E156E030E47
:101BB600156401D016D01550010D900EF324D96E80
:101BC600000EF420DA6E000EDF6E1550010D8C0E3D
:101BD600F324D96E000EF420DA6E000EDF6E152A9D
:101BE600E6D7AE0E016E000E026E000E046E000EFB
:101BF600036E000E066E040E056E9DEC13F06D9CD2
:101C0600080E0001726F040E736F000E416E040E13
:101C1600426E41C03FF042C040F042C45BF05B50B0
:101C2600D8A403D0100E526E1200000E0E6E010ED6
:101C36000D6E5B0E0F6E000E106E000E126E010E14
:101C4600116EFEEC11F0200E526E1200080E016E9F
:101C56000001875110E1080E865DD8B00CD086C011
:101C660001F05150D8A402D0010E04D05104D8A4DA
:101C760002D0020E516E0150865F000E875B20EE89
:101C860001F07251D9267351DA2201C0DFFF480EE6
:101C96003D6E040E3E6E85A11CD03AD082C0F6FF82
:101CA60083C0F7FFF86A3DC0D9FF3EC0DAFF070ED2
:101CB600F76403D00800F55005D0F6CFE1FFF7CF63
:101CC600E2FFE750DF6E0001824B832B3D4A3E2A3E
:101CD60001060150D8B41200E1D782C0F6FF83C0D6
:101CE600F7FFF86A3DC0D9FF3EC0DAFF070EF7647A
:101CF60003D00800F55005D0F6CFE1FFF7CFE2FF9D
:101D0600E750DF6E0001824B832B3D4A3E2A0106D7
:101D16000150D8B41200E1D74A50D8A41200010EDF
:101D26004A6E4950D8A41200010E496E020E501890
:101D3600D8A416D0000120EE01F07251D9267351B5
:101D4600DA22000EDF6E72C0D9FF73C0DAFF480ECA
:101D5600DF6E72C0D9FF73C0DAFF000EDB8E120091
:101D66005004D8A41200000E4D6E20EE01F0415032
:101D7600D9264250DA22080EDF6E20EE02F04150DC
:101D8600D9264250DA22400EDE6E040EDD6E41C0C8
:101D9600D9FF42C0DAFF040EDF6E41C0D9FF42C050
:101DA600DAFF000EDB8E010E4D6E20EE01F03F5085
:101DB600D9264050DA22080EDF6E20EE02F03F50A0
:101DC600D9264050DA22400EDE6E040EDD6E3FC08C
:101DD600D9FF40C0DAFF800EDF6E120072C0D9FF55
:101DE60073C0DAFF0001000EDFBC010E026E040EA6
:101DF6007219726F7351736F080E5218D8A40BD0F4
:101E0600040142517F0B6E6E6E50D8B402D0100E94
:101E160001D0040E526E5004D8A43BD0000120EE2F
:101E260002F07251D9267351DA22480EDE6E040E84
:101E3600DD6E29EC0EF0020E5118D8A40DD072C03A
:101E4600D9FF73C0DAFF040EDF6E72C0D9FF73C00C
:101E5600DAFF000EDB8E12000250D8A40DD072C03D
:101E6600D9FF73C0DAFF480EDF6E72C0D9FF73C0A8
:101E7600DAFF000EDB8E120072C0D9FF73C0DAFFE4
:101E8600080EDF6E72C0D9FF73C0DAFF000EDB8E5C
:101E9600120000016DBF6D9F000E506E120004010E
:101EA60040511F0BE806D8A412004039E832030B54
:101EB600E806D8A412004451D8B437D04405D8A4B3
:101EC600120033D0A60E0001826F000E836F000E43
:101ED600876F080E866F8581858F1200A60E00011A
:101EE600826F000E836F858F120046C46EF047C462
:101EF6006FF0530E00016A6F000E6B6F000E706F6D
:101F0600000E716F6D8F1200530E0001826F000E6E
:101F1600836F000E876F070E866FC10E856F1200E6
:101F260042C444F00001858F120004014151000AA9
:101F3600D8B4C8D7010AD8B4D1D7210AD8B4D5D7CE
:101F4600010AD8B4E1D7030AD8A41200E9D70600DB
:101F5600FACF1DF0FBCF1EF0E9CF1FF0EACF20F03D
:101F6600E1CF21F0E2CF22F0D9CF23F0DACF24F06F
:101F7600F3CF25F0F4CF26F0F6CF27F0F7CF28F0F1
:101F8600F8CF29F0F5CF2AF05CC02BF05DC02CF01D
:101F96005EC02DF05FC02EF0F2A408D0F294070EBA
:101FA600D626000ED722394A3A2A02D08CEC09F0FE
:101FB6002EC05FF02DC05EF02CC05DF02BC05CF033
:101FC6002AC0F5FF29C0F8FF28C0F7FF27C0F6FF93
:101FD60026C0F4FF25C0F3FF24C0DAFF23C0D9FFD3
:101FE60022C0E2FF21C0E1FF20C0EAFF1FC0E9FFD7
:101FF6001EC0FBFF1DC0FAFF5C921100000E04011B
:10200600486F000E496F38D00001858F4F04D8A461
:102016003ED0040148833BD00001858F38D00001B3
:10202600858F040144BF0AD044510F0B016E015045
:10203600020D7A0EF324D96E000E09D044510F0B0F
:10204600016E0150020D720EF324D96E000EF420BB
:10205600DA6EDECF02F0DDCF03F002C0D9FF03C097
:10206600DAFFDFAE14D002C0D9FF03C0DAFFDFA467
:102076000ED0010E486F0BD040511F0B000AD8B48A
:10208600C3D7010AD8B4C8D7030AD8B4C8D7000141
:1020960085AF1200480E826F040E836F8581020E93
:1020A600866F1200000E486E000E476E020E501824
:1020B600D8A41FD020EE01F03F50D9264050DA2296
:1020C600080EDF6E20EE02F03F50D9264050DA228D
:1020D600480EDE6E040EDD6E3FC0D9FF40C0DAFF4B
:1020E600480EDF6E3FC0D9FF40C0DAFF000EDB8E20
:1020F6001200000186510401465D0001875104016A
:102106004759D8B004D046C486F047C487F029ECB6
:102116000EF0000120EE02F07251D9267351DA2238
:10212600480EDE6E040EDD6E72C0D9FF73C0DAFF94
:10213600480EDF6E72C0D9FF73C0DAFF000EDB8E69
:102146001200000E0001A36F9C519D11D8B406D059
:102156009CC0D9FF9DC0DAFFDFBE3BD020EE01F068
:102166009C51D9269D51DA22C251DE5CD8B008D0E6
:1021760020EE01F09C51D9269D51DA22DF50C26F24
:10218600000EA36F13D0A351010D400EF324D96E98
:10219600050EF420DA6EA351010DF350C025E16E51
:1021A600F450C121E26EDFCFE7FFA32BC251A35D3E
:1021B600D8A0E9D7000EB56F400EB66F050EB76F03
:1021C600400EB86F020ECBEC0BF0B5C09CF0B6C05B
:1021D6009DF00001A35112002D0E4C6E5AC01BF04B
:1021E600FD0E1B16D8A43BD05AC01BF0D8901B324C
:1021F6003F0E1B161B50040D000EF324416E040EF9
:10220600F420426E41C03FF042C040F0040E3F1839
:102216003F6E4050406E41C0D9FF42C0DAFFDF300A
:10222600E8320F0B0D0AD8A417D0400E016E040E2B
:10223600026E20EE02F04150D9264250DA22DECF5D
:1022460003F0DDCF04F0000E066E080E056E7EEC80
:1022560012F084EC11F012002EEC12F012005A501B
:10226600FD0B040AD8A41200F1EC0EF01200066E63
:10227600000E076E040E086E0150026E036AD890B7
:10228600023603360650046E056AD89004360536C3
:10229600D890043605360250042603500522D890FD
:1022A60004360536D8900436053604500726055000
:1022B600082207C0D9FF08C0DAFFDF9E0150D8A464
:1022C60007D00650020D7A0EF324D96E000E06D002
:1022D6000650020D720EF324D96E000EF420DA6E4B
:1022E60007C0DEFF08C0DDFF07C0D9FF08C0DAFF60
:1022F600DF9C20EE04F00750D9260850DA22DF8C46
:102306001200000E516E000E4B6E000E486E000E4F
:10231600476E000E4D6E000E506E72C0D9FF73C030
:10232600DAFF7F0EDF16040E00017219726F735109
:10233600736F72C0D9FF73C0DAFF7F0EDF16040E0B
:102346007219726F7351736F3FC0D9FF40C0DAFFC5
:102356007F0EDF16000E856F000E876F000E866FEC
:10236600000E6D6F000E6F6F000E6E6F48EC0DF075
:10237600000E0E6E030E0D6E000E0F6E000E106E2A
:10238600000E126E000E116EFEEC11F0CFEC0CF08A
:102396001200000E536E4B0E546E000E556E000E5C
:1023A600566E000E576E000E586E080E596E000ED1
:1023B6000001A36F1A0E096E010E02EC13F01E0E39
:1023C600096E020E02EC13F0000E016E400E026E54
:1023D600050E036E400E046E020E4EEC0CF001C0AC
:1023E6009CF002C09DF0000E3B6E000E3C6E000E8F
:1023F6000001A26F120008D0CCEC11F0F7EC13F03C
:10240600120052EC0FF012000DC013F00EC014F0C3
:102416001450000AD8B404D07F0AD8A4120018D0E9
:102426001350010AD8B4E8D7030AD8B41200010A37
:10243600D8B4E7D7060AD8B41200770AD8B412007F
:10244600010AD8B41200070AD8B41200010A120011
:102456001350FF0A1200020E5018D8A403D044EC01
:102466000BF01200000E506E4D50D8A41FD020EE77
:1024760001F03F50D9264050DA22080EDF6E20EEDA
:1024860002F03F50D9264050DA22400EDE6E040E8E
:10249600DD6E3FC0D9FF40C0DAFF0C0EDF6E3FC0D5
:1024A600D9FF40C0DAFF000EDB8E1200000E4D6E23
:1024B60012000001C36F200E526001D012006DB2EF
:1024C60012000001A251D8A408D0C30EB56F000EA9
:1024D600B66F010EB76FC6EC13F0BAEC0AF0340E05
:1024E6000001C26FF10EE82EFED7C22FFCD700D036
:1024F600BAEC0AF0120003C009F004C00AF001C0E9
:1025060007F002C008F010D009C0D9FF0AC0DAFFF0
:10251600DF500B6E094A0A2A07C0D9FF08C0DAFF46
:102526000BC0DFFF074A082A0506D8A006060528BD
:10253600EBE10628D8B41200E7D7000E0001CE6FF3
:10254600000ECF6F000ED06F000ED16F2EEC14F080
:1025560020EC13F012EC14F0B5C0D2F0B6C0D3F0F4
:10256600000E0001D46F20EC13F0809680948092C8
:102576008080D7EC13F06BEC04F0FDD770A01DD073
:1025860041C0D9FF42C0DAFF800EDE18D8A414D0AD
:1025960072C0D9FF73C0DAFF840EDE18D8A40CD03F
:1025A60041C0D9FF42C0DAFF0C0EDF6E41C0D9FF31
:1025B60042C0DAFF000EDB8E7090689A1200000EA1
:1025C6000001C66F200E526002D0D89012006DA294
:1025D60002D0D8901200A251D8A40FD0C4C0C0F027
:1025E600C5C0C1F0010EC26FA4EC10F00001C66FA9
:1025F600C651D8B402D0D8801200D89012000C6E02
:1026060009A405D0000E016E0C503AEC11F009A297
:1026160005D0010E016E0C503AEC11F00C50010D74
:10262600700EF3240A6E0F0EF4200B6E0AC0D9FF4B
:102636000BC0DAFF09C0DFFF1200C186C184C18268
:10264600C180938093829384938694929490929679
:102656009294929292901DEC14F0D59AD596D580CC
:10266600D582D594CD92CD98CD9AF28AF28E12006B
:10267600000E0001A56F000E0E6E740E0D6E000E9C
:102686000F6E000E106E000E126E000E116EFEEC36
:1026960011F06D92699401D0689468B4FDD7000E6C
:1026A6000001A46F1200B5C0BBF0B6C0BCF009D0E3
:1026B600BBC0D9FFBCC0DAFFB7C0DFFF0001BB4B10
:1026C600BC2B0001B907D8A0BA07B929F1E1BA298C
:1026D600D8B41200EDD75250D8A41200000E6D6E79
:1026E600000E696E160E6F6E9F0E6B6E7B0E696E18
:1026F600D08EA28AA08AF28E01D06D866DA6FDD7F5
:10270600010E526E1200698468986D82010E0001F6
:10271600A56F000EA46F000E0E6E750E0D6E000EE8
:102726000F6E000E106E000E126E000E116EFEEC95
:1027360011F0120001C007F002C008F008D007C06F
:10274600D9FF08C0DAFF03C0DFFF074A082A0506DB
:10275600D8A006060528F3E10628D8B41200EFD75C
:1027660000EE60F0550EEE6AE806FDE100EE2FF091
:102776002D0EEE6AE806FDE15C905C92000EF86EA6
:102786000001A0EF12F0A09A0001A251D8A40AD02D
:10279600B5C036F0B6C037F0B7C046F0010E456E8C
:1027A600010EA26FA08A1200000E0001A16F12ECAA
:1027B60014F0B5C09AF0B6C09BF012EC14F0B5C098
:1027C60096F0B6C097F01200010E2F26000E3022AA
:1027D600312232220001A551D8A41200A42BA45103
:1027E600D8A41200A4691200000E576E080E596E86
:1027F600000E586E800E536E250E546E000E556EEA
:10280600000E566E12009EAA08D0B5C0D9FFB6C0FB
:10281600DAFFAECFDFFFD8801200D8901200F29E0A
:1028260039C0B7F03AC0B8F0F28EB7C0B5F0B8C04C
:10283600B6F01200670EAF6EAC84AC98AB8E948E79
:10284600948CAB88AC8A12000001B56F9EA8FED7A7
:10285600B5C0ADFF12004EEC08F06EEC13F012009E
:0C28660082908282120082908292120006
:020000040020DA
:08000000FFFFFFFFFFFFFFFF00
:020000040030CA
:0E0000003C0E3F1EFF8181FF0FC00FE00F403E
:00000001FF
