:10000000F52F4A2F5C2F6F2F812FF42F932FB82FAE
:100D7C000627D4262427C02E8312031305118510B1
:100D8C00080083120313051185140800F90083125F
:100D9C0003130C1ECD2E790899000800F60183125E
:100DAC0003130614DE267A08F3007908F200080013
:100DBC008B137508FC007408FB008B177C08FA0079
:100DCC007B08F900080019308316031399001815D5
:100DDC0018128312031398171816831603139816F8
:100DEC000800FA00831203138C1E042F1A08F90052
:100DFC007A088400790880000314080003100800A6
:100E0C00831203131F159F141F1483160313061646
:100E1C008616061086118511051205118510831290
:100E2C00031306108611E9268230FA00DD30F90032
:100E3C00F90B1E2FFA0B1E2F232F0800EC2FC226A6
:100E4C007830F726031C0800C13078060319422FAE
:100E5C00C23078060319422FC33078060319422F8B
:100E6C00C43078060319422FC63078060319422F76
:100E7C00C7307806031D472F0230FB007B08F600B5
:100E8C000800F801F6010800831203138515F80118
:100E9C00C726C830CC267730F726031C512FC83014
:100EAC007706031D0800C226F601080083160313FB
:100EBC000516F801C726C830CC267730F726031C58
:100ECC00632FC8307706031D6D2FC226F601F6017D
:100EDC000800831203138511F801C726C830CC26ED
:100EEC007730F726031C762FC8307706031D0800D1
:100EFC00C226F6010800831603130512F801C72653
:100F0C00C830CC267730F726031C882FC8307706DC
:100F1C00031D0800C226F601080083120313851D69
:100F2C00A52FF801C7267530CC267730F726031C81
:100F3C009B2F75307706031DA52FC226F601831251
:100F4C00031385190800F801C7267930CC267730B1
:100F5C00F726031CAD2F79307706031D0800C22637
:100F6C00F601080083160313051ECA2FF801C726C5
:100F7C007530CC267730F726031CC02F75307706DA
:100F8C00031DCA2FC226F60183160313051A080087
:100F9C00F801C7267930CC267730F726031CD22FE0
:100FAC0079307706031D0800C226F6010800780880
:100FBC003F3E031C0800840007300402031808009D
:100FCC0000308A0001300407820008007608003ADD
:100FDC000319252F023A0319DD2FF42F0800F00115
:100FEC00F101F201F301F401F501F601F701F80149
:040FFC008301BE2E81
:02400E0018FF99
:00000001FF
