:020000001028C6
:10000800FE00030EF1000408F2000A08F300831250
:1000180003137F08F4008F291128F601F701F8016E
:100028008313303084003C30E6218301002ABB284A
:10003800831203133009AC003109AD00AC0A03196F
:10004800AD0AD921831203132C082007AE002D080E
:1000580003182D0A2107AF0013302F028930031926
:100068002E02031C43280230AC002C08B500D9210D
:10007800831203132108B1002008B0000800B5015D
:10008800B50A0800FB213B30BB21031C63289530CF
:10009800831203133B06031D58289530AC002C0827
:1000A800B200BB01B501080096303B06031D0800ED
:1000B800BB019630AC002C08B200B5010800033033
:1000C80083120313AC002C08B500080095303206E3
:1000D800031D8728F621831203133408EE213B30D1
:1000E800BB21031C7328831203133B083406031D2A
:1000F8008528FB21033083120313AC002C08B500BC
:100108000800B501080096303206031D0800F621E4
:10011800831203133308EE213B30BB21031C9028C4
:10012800831203133B083306031DA228FB21033067
:1001380083120313AC002C08B5000800B5010800B1
:100148009813181236305421031C08008312031325
:100158003808AC002C08B4003608AC002C08B300F2
:10016800981718160330AC002C08B5000800831245
:100178000313350884000430040203180800023011
:100188008A00043004078200080083160313051050
:10019800831203130510D921831203132108A90020
:1001A8002008A8002809A4002909A500A40A031901
:1001B800A50AD9218312031324082007A6002508BD
:1001C8000318250A2107A700003027021330031956
:1001D8002602031CD628831603130514093083123C
:1001E8000313A400A40BF6280000831203130518B8
:1001F800FF28031408000310080083120313A20049
:100208002208840083138001A30108302302031805
:100218000800051C0D299101121505181129121144
:1002280029301102031C2B290130A0002303FF3AB7
:10023800073E013E21290310A00DFF3E031D1F2983
:100248002008A100220884002108831380040130BB
:10025800A0002008A3070929831203131F159F1460
:100268001F1483160313061085100511FB21A721FF
:10027800823083120313A100DD30A000A00B4229B5
:10028800A10B422900008316031381128111011466
:10029800811001118312031392018B168B1708002A
:1002A80083120313AA00C920031C08007721031C2A
:1002B80008008B1383120313AB0105302B020318BC
:1002C80074292B03FF3A043E2A0701210130F50067
:1002D800750883120313AB0705302B02031C65292D
:1002E8008B170314080083160313051483120313D2
:1002F80091011215051C7E291211323011020318C2
:10030800872903100800910112150518892912116F
:100318003C30110208000B1D9C290B110730F0001E
:10032800700881070130F6070318F70A0030F7074D
:100338007408FF0073088A0072088400710E830035
:10034800FE0E7E0E09001930831603139900181546
:1003580018128312031398178316031306118614B1
:1003680083120313181683160313981608008312B2
:100378000313A0008C1EC9291A08F5002008840060
:100388007508831380000314080003100800023066
:10039800F500750883120313B500D92183120313DE
:1003A8002108B1002008B00008008B1377088312D9
:1003B8000313A3007608A2008B172308A1002208C4
:1003C800A000080064008001840A040603190034B0
:1003D8000406E729F500831203130C1EEF2975089C
:1003E800990008008312031305118514080083126D
:1003F80003130511851008003021CB211B20022A88
:080408006A284628A4281C28DC
:02400E000AFFA7
:00000001FF
