:040000008A11112828
:10000800FE00030EF6000408F7000A08F800831241
:1000180003137F08F9008A11222A8A111328F00194
:10002800F101F201F301F40183120313B101B201EA
:10003800B301B401B501B601B701B80183018A1152
:10004800F22983120313A601A701BF28981C2E28A2
:10005800181218168A11D9228A1138308A11732277
:100068008A11031C0800A830831203133806031DE5
:100078000800B801B701B70A0800A601A7018A114C
:10008800A1228A11831203132108A5002008A400C5
:100098000310861D0314031C5528831203138615A9
:1000A80058288312031386110310061C0314031C1B
:1000B800612883120313061464288312031306109D
:1000C8008A11D4228A1171088A11AE228A117428E1
:1000D800013083120313A6070318A70A0030A707E5
:1000E80028308A1173228A1103188328FF3083125B
:1000F80003132702FE3003192602031C6C2871081B
:10010800831203132806031DB92870088A11AE222A
:100118008A1183120313A601A70198280130A607A4
:100128000318A70A0030A70728308A1173228A11FA
:100138000318A728FF30831203132702FE30031980
:100148002602031C92287008831203132806031D35
:10015800B3288A11D92283120313B70108008A1120
:10016800D92283120313B70108008A11D9228312F6
:100178000313B70108003708003A03192A28013A7F
:1001880003194128C72808003B298A1138228A11F7
:1001980023308A1161228A1111308A1193218A1120
:1001A800F401F40A8A11A122831203132108B20070
:1001B8002008B1000800831203133109AB0032098B
:1001C800AC00AB0A0319AC0A8A11A1228A11831266
:1001D80003132B082007AD002C0803182C0A21074D
:1001E800AE0000302E02B53003192D02031C0800A2
:1001F8000230AB002B08F4000800F001F1018A116D
:1002080038228A1123308A11B6228A118A1147218D
:100218008A1183120313AB00AC012B08F0002C08E1
:10022800F10008300310F00DF10DFF3E031D1629F3
:100238008A1183228A118A1147218A118312031392
:10024800AB00AC012B08F0070318F10A2C08F107E2
:100258008A1192228A118A110A228A11F01F3929D9
:100268007F30F005FF30F1057117F40108007408BC
:10027800003A0319C928013A0319DF28033A031978
:1002880001294629080083120313A5018A11E222D5
:100298008A1183120313A301A4012408803AFF00E2
:1002A80080307F02031D5A290830230203188F2942
:1002B800831203132508A1002107FE39A200220892
:1002C800A5008A11E6228A118A11EC228A1183126A
:1002D8000313861C73290130A1002108A5078A1180
:1002E800BE228A118A11CD228A118A11BE228A1150
:1002F800013083120313A3070318A40A0030A407CC
:100308002408803AFF0080307F02031D8D290830C1
:100318002302031C5C298312031325080800831297
:100328000313A3002308A1002108A600A401A50126
:100338002508803AFF0080307F02031DA529083078
:1003480024020318CB2983120313A61FAF298A118D
:1003580092228A11B2298A1183228A1183120313E5
:100368002608A1002107A2002208A6000130A40740
:100378000318A50A0030A5072508803AFF00803039
:100388007F02031DC92908302402031CA7298A11EA
:1003980092220800831603131C159C101C109B0145
:1003A8008515051606108611051185108A114D222E
:1003B8008A1183160313811281110108F839013853
:1003C8008100823083120313A100DD30A000A00B4E
:1003D800EB29A10BEB298B168B170800831203134B
:1003E800AF01B0018A11CE218A11831203130614BA
:1003F80086158A11EA228A118A11DE228A118A1147
:10040800C8208A118A1125208A11032A8A11CD222F
:100418008A118A11BE228A118A11C6228A118A116A
:10042800BE228A118A11E6228A118A11BE228A11F5
:100438008A11E2228A118A11BE2208000B110730A4
:10044800F500750881070130F2070318F30A003038
:10045800F3077908FF0078088A0077088400760E89
:100468008300FE0E7E0E09008A11E2228A118A118B
:10047800E6228A118A11BE228A118A11C6228A119D
:100488008A11BE228A118A11CD228A118A11BE22AE
:1004980008001930831603139900181518128312CF
:1004A8000313181683160313981683120313981749
:1004B8008316031386160615080083120313A90072
:1004C8002908A7002707A8002808AA002A08FE3933
:1004D800A7002708AA002A088A1193210800831276
:1004E8000313A1008C1E812A1A08A0002108840089
:1004F80020088313800003140800031008008A11E1
:10050800CD228A118A11C6228A118A11E6228A11FD
:100518008A11BE228A118A11CD2208008A11CD22A1
:100528008A118A11E2228A118A11E6228A118A1115
:10053800BE228A118A11CD2208008B1373088312F8
:100548000313A3007208A2008B172308A100220836
:10055800A000080083120313A0000C1EB12A200873
:100568009900080083120313A7000314270D8A11AA
:1005780093210800023083120313A000A00BC22AA3
:1005880000000800831203138610831603138610D5
:1005980008008312031306128316031306120800B9
:1005A8008312031305118514080083120313051120
:1005B8008510080083120313B7010800831603137C
:1005C800861408008316031306160800F4010800B1
:0205D800080019
:02400E0029FF88
:00000001FF
