:040000008A11112828
:10000800FE00030EF6000408F7000A08F800831241
:1000180003137F08F9008A11F0298A111328F001C7
:10002800F101F201F301F40183120313B101B201EA
:10003800B301B401B501B601B701B80183018A1152
:10004800C02992288A1106228A1123308A112F2268
:100058008A1111308A1161218A11F401F40A8A1176
:100068006F22831203132108F1002008F000080012
:10007800700983120313AB007109AC00AB0A0319B2
:10008800AC0A8A116F228A11831203132B082007E6
:10009800AD002C0803182C0A2107AE0000302E02F0
:1000A800B53003192D02031C08000230AB002B08E1
:1000B800F400080083120313B501B6018A11062261
:1000C8008A1123308A1184228A118A1115218A11F2
:1000D80083120313AB00AC012B08B5002C08B60043
:1000E80008300310B50DB60DFF3E031D75288A11A3
:1000F80051228A118A1115218A1183120313AB0028
:10010800AC012B08B5070318B60A2C08B6078A11E4
:1001180060228A118A11D821F40108007408003A73
:1001280003192628013A03193C28033A03195E28C3
:100138009D2808000A298A11A7228A1138308A11B5
:1001480041228A11031C0800A830831203133806C1
:10015800031D0800B801B701B70A08008A116F2209
:100168008A11831203132108A5002008A400031094
:10017800861D0314031CC428831203138615C7287D
:100188008312031386110310061C0314031CD028C2
:10019800831203130614D3288312031306108A113B
:1001A800A2228A118312031336088A117C228A112B
:1001B80026308A1141228A11031CDC28831203137A
:1001C80036082606031D042935088A117C228A115F
:1001D80026308A1141228A11031CEC28831203134A
:1001E80035082606031DFE288A11A7228312031349
:1001F800B70108008A11A72283120313B701080068
:100208008A11A72283120313B7010800831203136C
:100218003708003A03199F28013A0319B22814290C
:10022800080083120313A5018A11B0228A118312D0
:100238000313A301A4012408803AFF0080307F0241
:10024800031D28290830230203185D29831203138C
:100258002508A1002107FE39A2002208A5008A115D
:10026800B4228A118A11BA228A1183120313861CB6
:1002780041290130A1002108A5078A118C228A1181
:100288008A119B228A118A118C228A1101308312C9
:100298000313A3070318A40A0030A4072408803A0C
:1002A800FF0080307F02031D5B2908302302031CF6
:1002B8002A29831203132508080083120313A300B5
:1002C8002308A1002108A600A401A5012508803A59
:1002D800FF0080307F02031D7329083024020318B1
:1002E800992983120313A61F7D298A1160228A1176
:1002F80080298A1151228A11831203132608A1002A
:100308002107A2002208A6000130A4070318A50AA5
:100318000030A5072508803AFF0080307F02031DC2
:10032800972908302402031C75298A1160220800C5
:10033800831603131C159C101C109B0185150516AC
:1003480006108611051185108A111B228A11831641
:100358000313811281110108F839013881008230B4
:1003680083120313A100DD30A000A00BB929A10B53
:10037800B9298B168B17080083120313AF01B0013C
:100388008A119C218A1183120313061486158A1177
:10039800B8228A118A11AC228A118A1125208A1161
:1003A8008A119E208A11D1298A119B228A118A11C9
:1003B8008C228A118A1194228A118A118C228A111C
:1003C8008A11B4228A118A118C228A118A11B022C8
:1003D8008A118A118C2208000B110730F500750864
:1003E80081070130F2070318F30A0030F307790890
:1003F800FF0078088A0077088400760E8300FE0ED6
:100408007E0E09008A11B0228A118A11B4228A113B
:100418008A118C228A118A1194228A118A118C22BB
:100428008A118A119B228A118A118C22080019309C
:10043800831603139900181518128312031318163C
:10044800831603139816831203139817831603133E
:1004580086160615080083120313A9002908A700A9
:100468002707A8002808AA002A08FE39A700270895
:10047800AA002A088A116121080083120313A10027
:100488008C1E4F2A1A08A000210884002008831314
:10049800800003140800031008008A119B228A11A7
:1004A8008A1194228A118A11B4228A118A118C2203
:1004B8008A118A119B2208008A119B228A118A11AB
:1004C800B0228A118A11B4228A118A118C228A11C7
:1004D8008A119B2208008B13730883120313A3004D
:1004E8007208A2008B172308A1002208A0000800A8
:1004F80083120313A0000C1E7F2A2008990008000D
:1005080083120313A7000314270D8A116121080021
:10051800023083120313A000A00B902A00000800E9
:1005280083120313861083160313861008008312A0
:10053800031306128316031306120800831203130B
:10054800051185140800831203130511851008008E
:1005580083120313B70108008316031386140800D7
:0E0568008316031306160800F40108000800AD
:02400E0029FF88
:00000001FF
